{
  "_format": "hh-sol-artifact-1",
  "contractName": "EquityNFTFactory",
  "sourceName": "contracts/EquityNFTFactory.sol",
  "abi": [
    {
      "inputs": [],
      "stateMutability": "nonpayable",
      "type": "constructor"
    },
    {
      "anonymous": false,
      "inputs": [
        {
          "indexed": true,
          "internalType": "address",
          "name": "owner",
          "type": "address"
        },
        {
          "indexed": true,
          "internalType": "address",
          "name": "approved",
          "type": "address"
        },
        {
          "indexed": true,
          "internalType": "uint256",
          "name": "tokenId",
          "type": "uint256"
        }
      ],
      "name": "Approval",
      "type": "event"
    },
    {
      "anonymous": false,
      "inputs": [
        {
          "indexed": true,
          "internalType": "address",
          "name": "owner",
          "type": "address"
        },
        {
          "indexed": true,
          "internalType": "address",
          "name": "operator",
          "type": "address"
        },
        {
          "indexed": false,
          "internalType": "bool",
          "name": "approved",
          "type": "bool"
        }
      ],
      "name": "ApprovalForAll",
      "type": "event"
    },
    {
      "anonymous": false,
      "inputs": [
        {
          "indexed": true,
          "internalType": "address",
          "name": "previousOwner",
          "type": "address"
        },
        {
          "indexed": true,
          "internalType": "address",
          "name": "newOwner",
          "type": "address"
        }
      ],
      "name": "OwnershipTransferred",
      "type": "event"
    },
    {
      "anonymous": false,
      "inputs": [
        {
          "indexed": true,
          "internalType": "uint256",
          "name": "tokenId",
          "type": "uint256"
        },
        {
          "indexed": false,
          "internalType": "address",
          "name": "to",
          "type": "address"
        },
        {
          "indexed": false,
          "internalType": "uint256",
          "name": "shares",
          "type": "uint256"
        }
      ],
      "name": "SharesIssued",
      "type": "event"
    },
    {
      "anonymous": false,
      "inputs": [
        {
          "indexed": true,
          "internalType": "uint256",
          "name": "tokenId",
          "type": "uint256"
        },
        {
          "indexed": false,
          "internalType": "string",
          "name": "name",
          "type": "string"
        },
        {
          "indexed": false,
          "internalType": "address",
          "name": "founder",
          "type": "address"
        }
      ],
      "name": "StartupRegistered",
      "type": "event"
    },
    {
      "anonymous": false,
      "inputs": [
        {
          "indexed": true,
          "internalType": "uint256",
          "name": "tokenId",
          "type": "uint256"
        },
        {
          "indexed": false,
          "internalType": "bool",
          "name": "status",
          "type": "bool"
        }
      ],
      "name": "StartupValidated",
      "type": "event"
    },
    {
      "anonymous": false,
      "inputs": [
        {
          "indexed": true,
          "internalType": "address",
          "name": "from",
          "type": "address"
        },
        {
          "indexed": true,
          "internalType": "address",
          "name": "to",
          "type": "address"
        },
        {
          "indexed": true,
          "internalType": "uint256",
          "name": "tokenId",
          "type": "uint256"
        }
      ],
      "name": "Transfer",
      "type": "event"
    },
    {
      "anonymous": false,
      "inputs": [
        {
          "indexed": true,
          "internalType": "address",
          "name": "issuer",
          "type": "address"
        },
        {
          "indexed": false,
          "internalType": "bool",
          "name": "status",
          "type": "bool"
        }
      ],
      "name": "TrustedIssuerUpdated",
      "type": "event"
    },
    {
      "anonymous": false,
      "inputs": [
        {
          "indexed": true,
          "internalType": "uint256",
          "name": "tokenId",
          "type": "uint256"
        },
        {
          "indexed": false,
          "internalType": "uint256",
          "name": "oldValuation",
          "type": "uint256"
        },
        {
          "indexed": false,
          "internalType": "uint256",
          "name": "newValuation",
          "type": "uint256"
        }
      ],
      "name": "ValuationUpdated",
      "type": "event"
    },
    {
      "inputs": [
        {
          "internalType": "address",
          "name": "issuer",
          "type": "address"
        }
      ],
      "name": "addTrustedIssuer",
      "outputs": [],
      "stateMutability": "nonpayable",
      "type": "function"
    },
    {
      "inputs": [
        {
          "internalType": "address",
          "name": "validator",
          "type": "address"
        }
      ],
      "name": "addValidator",
      "outputs": [],
      "stateMutability": "nonpayable",
      "type": "function"
    },
    {
      "inputs": [
        {
          "internalType": "address",
          "name": "to",
          "type": "address"
        },
        {
          "internalType": "uint256",
          "name": "tokenId",
          "type": "uint256"
        }
      ],
      "name": "approve",
      "outputs": [],
      "stateMutability": "nonpayable",
      "type": "function"
    },
    {
      "inputs": [
        {
          "internalType": "address",
          "name": "owner",
          "type": "address"
        }
      ],
      "name": "balanceOf",
      "outputs": [
        {
          "internalType": "uint256",
          "name": "",
          "type": "uint256"
        }
      ],
      "stateMutability": "view",
      "type": "function"
    },
    {
      "inputs": [
        {
          "internalType": "uint256",
          "name": "tokenId",
          "type": "uint256"
        }
      ],
      "name": "getApproved",
      "outputs": [
        {
          "internalType": "address",
          "name": "",
          "type": "address"
        }
      ],
      "stateMutability": "view",
      "type": "function"
    },
    {
      "inputs": [
        {
          "internalType": "address",
          "name": "founder",
          "type": "address"
        }
      ],
      "name": "getFounderStartups",
      "outputs": [
        {
          "internalType": "uint256[]",
          "name": "",
          "type": "uint256[]"
        }
      ],
      "stateMutability": "view",
      "type": "function"
    },
    {
      "inputs": [
        {
          "internalType": "uint256",
          "name": "tokenId",
          "type": "uint256"
        }
      ],
      "name": "getStartupDetails",
      "outputs": [
        {
          "components": [
            {
              "internalType": "string",
              "name": "name",
              "type": "string"
            },
            {
              "internalType": "string",
              "name": "description",
              "type": "string"
            },
            {
              "internalType": "uint256",
              "name": "totalShares",
              "type": "uint256"
            },
            {
              "internalType": "uint256",
              "name": "availableShares",
              "type": "uint256"
            },
            {
              "internalType": "uint256",
              "name": "valuation",
              "type": "uint256"
            },
            {
              "internalType": "address",
              "name": "founder",
              "type": "address"
            },
            {
              "internalType": "bool",
              "name": "isValidated",
              "type": "bool"
            }
          ],
          "internalType": "struct EquityNFTFactory.Startup",
          "name": "",
          "type": "tuple"
        }
      ],
      "stateMutability": "view",
      "type": "function"
    },
    {
      "inputs": [
        {
          "internalType": "uint256",
          "name": "tokenId",
          "type": "uint256"
        }
      ],
      "name": "getStartupValuation",
      "outputs": [
        {
          "internalType": "uint256",
          "name": "",
          "type": "uint256"
        }
      ],
      "stateMutability": "view",
      "type": "function"
    },
    {
      "inputs": [
        {
          "internalType": "address",
          "name": "owner",
          "type": "address"
        },
        {
          "internalType": "address",
          "name": "operator",
          "type": "address"
        }
      ],
      "name": "isApprovedForAll",
      "outputs": [
        {
          "internalType": "bool",
          "name": "",
          "type": "bool"
        }
      ],
      "stateMutability": "view",
      "type": "function"
    },
    {
      "inputs": [
        {
          "internalType": "uint256",
          "name": "tokenId",
          "type": "uint256"
        },
        {
          "internalType": "address",
          "name": "to",
          "type": "address"
        },
        {
          "internalType": "uint256",
          "name": "shares",
          "type": "uint256"
        }
      ],
      "name": "issueShares",
      "outputs": [],
      "stateMutability": "nonpayable",
      "type": "function"
    },
    {
      "inputs": [],
      "name": "name",
      "outputs": [
        {
          "internalType": "string",
          "name": "",
          "type": "string"
        }
      ],
      "stateMutability": "view",
      "type": "function"
    },
    {
      "inputs": [],
      "name": "owner",
      "outputs": [
        {
          "internalType": "address",
          "name": "",
          "type": "address"
        }
      ],
      "stateMutability": "view",
      "type": "function"
    },
    {
      "inputs": [
        {
          "internalType": "uint256",
          "name": "tokenId",
          "type": "uint256"
        }
      ],
      "name": "ownerOf",
      "outputs": [
        {
          "internalType": "address",
          "name": "",
          "type": "address"
        }
      ],
      "stateMutability": "view",
      "type": "function"
    },
    {
      "inputs": [
        {
          "internalType": "string",
          "name": "name",
          "type": "string"
        },
        {
          "internalType": "string",
          "name": "description",
          "type": "string"
        },
        {
          "internalType": "uint256",
          "name": "totalShares",
          "type": "uint256"
        },
        {
          "internalType": "uint256",
          "name": "initialValuation",
          "type": "uint256"
        }
      ],
      "name": "registerStartup",
      "outputs": [
        {
          "internalType": "uint256",
          "name": "",
          "type": "uint256"
        }
      ],
      "stateMutability": "nonpayable",
      "type": "function"
    },
    {
      "inputs": [
        {
          "internalType": "address",
          "name": "issuer",
          "type": "address"
        }
      ],
      "name": "removeTrustedIssuer",
      "outputs": [],
      "stateMutability": "nonpayable",
      "type": "function"
    },
    {
      "inputs": [
        {
          "internalType": "address",
          "name": "validator",
          "type": "address"
        }
      ],
      "name": "removeValidator",
      "outputs": [],
      "stateMutability": "nonpayable",
      "type": "function"
    },
    {
      "inputs": [],
      "name": "renounceOwnership",
      "outputs": [],
      "stateMutability": "nonpayable",
      "type": "function"
    },
    {
      "inputs": [
        {
          "internalType": "address",
          "name": "from",
          "type": "address"
        },
        {
          "internalType": "address",
          "name": "to",
          "type": "address"
        },
        {
          "internalType": "uint256",
          "name": "tokenId",
          "type": "uint256"
        }
      ],
      "name": "safeTransferFrom",
      "outputs": [],
      "stateMutability": "nonpayable",
      "type": "function"
    },
    {
      "inputs": [
        {
          "internalType": "address",
          "name": "from",
          "type": "address"
        },
        {
          "internalType": "address",
          "name": "to",
          "type": "address"
        },
        {
          "internalType": "uint256",
          "name": "tokenId",
          "type": "uint256"
        },
        {
          "internalType": "bytes",
          "name": "data",
          "type": "bytes"
        }
      ],
      "name": "safeTransferFrom",
      "outputs": [],
      "stateMutability": "nonpayable",
      "type": "function"
    },
    {
      "inputs": [
        {
          "internalType": "address",
          "name": "operator",
          "type": "address"
        },
        {
          "internalType": "bool",
          "name": "approved",
          "type": "bool"
        }
      ],
      "name": "setApprovalForAll",
      "outputs": [],
      "stateMutability": "nonpayable",
      "type": "function"
    },
    {
      "inputs": [
        {
          "internalType": "uint256",
          "name": "",
          "type": "uint256"
        }
      ],
      "name": "startups",
      "outputs": [
        {
          "internalType": "string",
          "name": "name",
          "type": "string"
        },
        {
          "internalType": "string",
          "name": "description",
          "type": "string"
        },
        {
          "internalType": "uint256",
          "name": "totalShares",
          "type": "uint256"
        },
        {
          "internalType": "uint256",
          "name": "availableShares",
          "type": "uint256"
        },
        {
          "internalType": "uint256",
          "name": "valuation",
          "type": "uint256"
        },
        {
          "internalType": "address",
          "name": "founder",
          "type": "address"
        },
        {
          "internalType": "bool",
          "name": "isValidated",
          "type": "bool"
        }
      ],
      "stateMutability": "view",
      "type": "function"
    },
    {
      "inputs": [
        {
          "internalType": "bytes4",
          "name": "interfaceId",
          "type": "bytes4"
        }
      ],
      "name": "supportsInterface",
      "outputs": [
        {
          "internalType": "bool",
          "name": "",
          "type": "bool"
        }
      ],
      "stateMutability": "view",
      "type": "function"
    },
    {
      "inputs": [],
      "name": "symbol",
      "outputs": [
        {
          "internalType": "string",
          "name": "",
          "type": "string"
        }
      ],
      "stateMutability": "view",
      "type": "function"
    },
    {
      "inputs": [
        {
          "internalType": "uint256",
          "name": "tokenId",
          "type": "uint256"
        }
      ],
      "name": "tokenURI",
      "outputs": [
        {
          "internalType": "string",
          "name": "",
          "type": "string"
        }
      ],
      "stateMutability": "view",
      "type": "function"
    },
    {
      "inputs": [
        {
          "internalType": "address",
          "name": "from",
          "type": "address"
        },
        {
          "internalType": "address",
          "name": "to",
          "type": "address"
        },
        {
          "internalType": "uint256",
          "name": "tokenId",
          "type": "uint256"
        }
      ],
      "name": "transferFrom",
      "outputs": [],
      "stateMutability": "nonpayable",
      "type": "function"
    },
    {
      "inputs": [
        {
          "internalType": "address",
          "name": "newOwner",
          "type": "address"
        }
      ],
      "name": "transferOwnership",
      "outputs": [],
      "stateMutability": "nonpayable",
      "type": "function"
    },
    {
      "inputs": [
        {
          "internalType": "address",
          "name": "",
          "type": "address"
        }
      ],
      "name": "trustedIssuers",
      "outputs": [
        {
          "internalType": "bool",
          "name": "",
          "type": "bool"
        }
      ],
      "stateMutability": "view",
      "type": "function"
    },
    {
      "inputs": [
        {
          "internalType": "uint256",
          "name": "tokenId",
          "type": "uint256"
        },
        {
          "internalType": "uint256",
          "name": "newValuation",
          "type": "uint256"
        }
      ],
      "name": "updateValuation",
      "outputs": [],
      "stateMutability": "nonpayable",
      "type": "function"
    },
    {
      "inputs": [
        {
          "internalType": "uint256",
          "name": "tokenId",
          "type": "uint256"
        },
        {
          "internalType": "bool",
          "name": "status",
          "type": "bool"
        }
      ],
      "name": "validateStartup",
      "outputs": [],
      "stateMutability": "nonpayable",
      "type": "function"
    },
    {
      "inputs": [
        {
          "internalType": "address",
          "name": "",
          "type": "address"
        }
      ],
      "name": "validators",
      "outputs": [
        {
          "internalType": "bool",
          "name": "",
          "type": "bool"
        }
      ],
      "stateMutability": "view",
      "type": "function"
    }
  ],
  "bytecode": "0x6080346200035e576001600160401b039060408181018381118382101762000348578152601082526020916f5a656564436861696e2045717569747960801b83820152815193828501858110828211176200034857835260048552631691515160e21b84860152815181811162000348576000948554916001948584811c941680156200033d575b8385101462000329578190601f94858111620002d6575b5083908583116001146200027257899262000266575b5050600019600383901b1c191690851b1786555b8651928311620002525783548481811c9116801562000247575b828210146200023357828111620001eb575b50809183116001146200018457508495829394959262000178575b5050600019600383901b1c191690821b1790555b60068054336001600160a01b03198216811790925591519290916001600160a01b0316907f8be0079c531659141344cd1fd0a4f28419497f9722a3daafe3b4186f6b6457e09080a36120539081620003648239f35b0151905038806200010f565b90601f198316968487528287209287905b898210620001d3575050838596979810620001b9575b505050811b01905562000123565b015160001960f88460031b161c19169055388080620001ab565b80878596829496860151815501950193019062000195565b8487528187208380860160051c82019284871062000229575b0160051c019085905b8281106200021d575050620000f4565b8881550185906200020d565b9250819262000204565b634e487b7160e01b87526022600452602487fd5b90607f1690620000e2565b634e487b7160e01b86526041600452602486fd5b015190503880620000b4565b898052848a208894509190601f1984168b5b87828210620002bf5750508411620002a5575b505050811b018655620000c8565b015160001960f88460031b161c1916905538808062000297565b8385015186558b9790950194938401930162000284565b9091508880528389208580850160051c8201928686106200031f575b918991869594930160051c01915b828110620003105750506200009e565b8b815585945089910162000300565b92508192620002f2565b634e487b7160e01b88526022600452602488fd5b93607f169362000087565b634e487b7160e01b600052604160045260246000fd5b600080fdfe608080604052600436101561001357600080fd5b60003560e01c90816301ffc9a71461173b5750806306fdde0314611698578063081812fc1461167a578063095ea7b31461150057806323b872dd146114d757806330e6d6e31461148557806340a141ff1461144357806342842e0e1461141b5780634d238c8e146113d6578063548be28c146112f35780636352211e146112c35780636dc0fc6b146111a857806370a0823114611111578063715018a6146110b457806375a770e514610f695780638da5cb5b14610f4057806392c54daf14610f0157806395d89b4114610e22578063a22cb46514610d50578063b467843014610c9c578063b88d4fde14610c3a578063b93d28eb14610bce578063c4566bdd14610b5f578063c87b56dd14610aee578063d91db9a014610a4a578063dd8aa6f6146108b5578063e417b25b146102cc578063e985e9c514610276578063f2fde38b146101ad5763fa52c7d81461016957600080fd5b346101a85760203660031901126101a8576001600160a01b0361018a6117e6565b166000526009602052602060ff604060002054166040519015158152f35b600080fd5b346101a85760203660031901126101a8576101c66117e6565b6101ce611a01565b6001600160a01b0390811690811561022257600654826bffffffffffffffffffffffff60a01b821617600655167f8be0079c531659141344cd1fd0a4f28419497f9722a3daafe3b4186f6b6457e0600080a3005b60405162461bcd60e51b815260206004820152602660248201527f4f776e61626c653a206e6577206f776e657220697320746865207a65726f206160448201526564647265737360d01b6064820152608490fd5b346101a85760403660031901126101a85761028f6117e6565b6102976117fc565b9060018060a01b03809116600052600560205260406000209116600052602052602060ff604060002054166040519015158152f35b346101a85760803660031901126101a85760043567ffffffffffffffff81116101a8576102fd9036906004016119e3565b60243567ffffffffffffffff81116101a85761031d9036906004016119e3565b906044359080511561087957811561082857606435156107d2576007549160001983146107bc57600183016007556040519361035885611856565b8285526020850152806040850152606084015260643560808401523360a0840152600060c08401526001820160005260086020526040600020835180519067ffffffffffffffff82116106df5781906103b18454611903565b601f811161076c575b50602090601f8311600114610700576000926106f5575b50508160011b916000199060031b1c19161781555b602084015180519067ffffffffffffffff82116106df5761040a6001840154611903565b601f8111610698575b50602090601f83116001146106225791806104b69492600594600092610617575b50508160011b916000199060031b1c19161760018201555b60408601516002820155606086015160038201556080860151600482015560a08087015192909101805460c0909701516001600160a81b03199097166001600160a01b039390931692909217951515901b60ff60a01b16949094179093556001600160a01b031992565b33156105d3576020926104ea6104e460018501600052600260205260018060a01b0360406000205416151590565b15611f02565b60018301600090815260026020526040902054610511906001600160a01b031615156104e4565b336000526003845260406000206001815401905560018301600052600284526040600020903390825416179055600182013360007fddf252ad1be2c89b69c2b068fc378daa952ba7f163c4a11628f55a4df523b3ef8180a433600052600b8352610582600183016040600020611f4e565b507f7772d790da6cd01e7b304a9349f1b918e7b80f1f4d86c33320279c7c3e9f45fa6105b9604051926040845260408401906117a6565b9133858201528060018501930390a2600160405191018152f35b606460405162461bcd60e51b815260206004820152602060248201527f4552433732313a206d696e7420746f20746865207a65726f20616464726573736044820152fd5b015190508880610434565b906001840160005260206000209160005b601f19851681106106805750926104b6949260019260059583601f19811610610667575b505050811b01600182015561044c565b015160001960f88460031b161c19169055888080610657565b91926020600181928685015181550194019201610633565b600184016000526020600020601f840160051c8101602085106106d8575b601f830160051c820181106106cc575050610413565b600081556001016106b6565b50806106b6565b634e487b7160e01b600052604160045260246000fd5b0151905086806103d1565b9250836000526020600020906000935b601f1984168510610751576001945083601f19811610610738575b505050811b0181556103e6565b015160001960f88460031b161c1916905586808061072b565b81810151835560209485019460019093019290910190610710565b909150836000526020600020601f840160051c8101602085106107b5575b90849392915b601f830160051c820181106107a65750506103ba565b60008155859450600101610790565b508061078a565b634e487b7160e01b600052601160045260246000fd5b60405162461bcd60e51b815260206004820152602860248201527f496e697469616c2076616c756174696f6e206d75737420626520677265617465604482015267072207468616e20360c41b6064820152608490fd5b60405162461bcd60e51b815260206004820152602360248201527f546f74616c20736861726573206d75737420626520677265617465722074686160448201526206e20360ec1b6064820152608490fd5b60405162461bcd60e51b81526020600482015260146024820152734e616d652063616e6e6f7420626520656d70747960601b6044820152606490fd5b346101a85760603660031901126101a8576004356108d16117fc565b60008281526002602052604090205460443591906108fe906001600160a01b03161515611fd8565b611fd8565b826000526020906008825260018060a01b0392836005604060002001541633148015610a33575b156109d657846000526008835260036040600020015481116109915784600052600883526003604060002001928354948286039586116107bc577f0d04a49b56b2de651670a9bae041e977e478f3d0f517e2b5b7a0374b6c49e62d9560409555845193168352820152a2005b60405162461bcd60e51b815260048101849052601b60248201527f4e6f7420656e6f75676820617661696c61626c652073686172657300000000006044820152606490fd5b60405162461bcd60e51b815260048101849052602f60248201527f4f6e6c7920666f756e646572206f72207472757374656420697373756572206360448201526e616e2069737375652073686172657360881b6064820152608490fd5b5033600052600a835260ff60406000205416610925565b346101a85760203660031901126101a8576004356000526008602052610ab36040600020610a778161193d565b9060ff610a866001830161193d565b6002830154926003810154610ac1600560048401549301549360405198899860e08a5260e08a01906117a6565b9088820360208a01526117a6565b9460408701526060860152608085015260018060a01b03811660a085015260a01c16151560c08301520390f35b346101a85760203660031901126101a857600435600090815260026020526040902054610b25906001600160a01b03161515611a59565b6000604051610b3381611872565b52610b5b604051610b4381611872565b600081526040519182916020835260208301906117a6565b0390f35b346101a85760203660031901126101a857610b786117e6565b610b80611a01565b60018060a01b031680600052600a6020526040600020600160ff198254161790557f462419a2b504f99d423732b4f90bc923eedcb86c43bae1bf81bedc326bd9d1d0602060405160018152a2005b346101a85760203660031901126101a857610be76117e6565b610bef611a01565b6001600160a01b03166000818152600a60209081526040808320805460ff19169055519182527f462419a2b504f99d423732b4f90bc923eedcb86c43bae1bf81bedc326bd9d1d091a2005b346101a85760803660031901126101a857610c536117e6565b610c5b6117fc565b6064359167ffffffffffffffff83116101a857366023840112156101a857610c90610c9a9336906024816004013591016118cc565b9160443591611b68565b005b346101a8576020806003193601126101a8576001600160a01b03610cbe6117e6565b16600052600b8152604060002060405190818382549182815201908192600052846000209060005b86828210610d3c578686610cfc8288038361188e565b604051928392818401908285525180915260408401929160005b828110610d2557505050500390f35b835185528695509381019392810192600101610d16565b835485529093019260019283019201610ce6565b346101a85760403660031901126101a857610d696117e6565b610d71611847565b6001600160a01b0390911690338214610ddd5733600052600560205260406000208260005260205260406000209015159060ff1981541660ff83161790556040519081527f17307eab39ab6107e8899845ad3d59bd9653f200f220920489ca2b5937696c3160203392a3005b60405162461bcd60e51b815260206004820152601960248201527f4552433732313a20617070726f766520746f2063616c6c6572000000000000006044820152606490fd5b346101a85760003660031901126101a85760405160006001805490610e4682611903565b80855291818116908115610eda5750600114610e81575b610b5b84610e6d8186038261188e565b6040519182916020835260208301906117a6565b600081815292507fb10e2d527612073b26eecdfd717e6a320cf44b4afac2b0732d9fcbe2b7fa0cf65b828410610ec2575050508101602001610e6d82610e5d565b80546020858701810191909152909301928101610eaa565b60ff191660208087019190915292151560051b85019092019250610e6d9150839050610e5d565b346101a85760203660031901126101a8576001600160a01b03610f226117e6565b16600052600a602052602060ff604060002054166040519015158152f35b346101a85760003660031901126101a8576006546040516001600160a01b039091168152602090f35b346101a8576020806003193601126101a85760e090600435600060c0604051610f9181611856565b606081526060858201528260408201528260608201528260808201528260a08201520152610fd76108f982600052600260205260018060a01b0360406000205416151590565b6000526008815260406000209060405191610ff183611856565b610ffa8161193d565b83526110086001820161193d565b91808401928352600282015492604085019384526003830154926060860193845260056004820154916080880192835201549361108e60a088019361107b60018060a01b0396878916875260ff60c08c019960a01c16151589526040519b8c9b828d5251918c01526101008b01906117a6565b9051898203601f190160408b01526117a6565b955160608801525160808701525160a0860152511660c084015251151560e08301520390f35b346101a85760003660031901126101a8576110cd611a01565b600680546001600160a01b031981169091556000906001600160a01b03167f8be0079c531659141344cd1fd0a4f28419497f9722a3daafe3b4186f6b6457e08280a3005b346101a85760203660031901126101a8576001600160a01b036111326117e6565b1680156111515760005260036020526020604060002054604051908152f35b60405162461bcd60e51b815260206004820152602960248201527f4552433732313a2061646472657373207a65726f206973206e6f7420612076616044820152683634b21037bbb732b960b91b6064820152608490fd5b346101a85760403660031901126101a857600435600081815260026020526040902054602435906111e3906001600160a01b03161515611fd8565b81600052600860205260ff60056040600020015460a01c161561128657801561124d5760407fdd9c5b684ac908e56b235f477f4fbd037117f994e48c60f5700009c106c9a681918360005260086020526004826000200190808254925582519182526020820152a2005b60405162461bcd60e51b815260206004820152601160248201527024b73b30b634b2103b30b63ab0ba34b7b760791b6044820152606490fd5b60405162461bcd60e51b815260206004820152601560248201527414dd185c9d1d5c081b9bdd081d985b1a59185d1959605a1b6044820152606490fd5b346101a85760203660031901126101a85760206112e1600435611aa5565b6040516001600160a01b039091168152f35b346101a85760403660031901126101a85760043561130f611847565b33600052600960205260ff604060002054161561139f5760207f52de13f705b300fd45de75c566f62f57f3c02ceb77289ad3c59d7294b61a732f9161136c6108f985600052600260205260018060a01b0360406000205416151590565b60008481526008835260409020600501805460ff60a01b191682151560a01b60ff60a01b161790556040519015158152a2005b60405162461bcd60e51b815260206004820152600f60248201526e2737ba1030903b30b634b230ba37b960891b6044820152606490fd5b346101a85760203660031901126101a8576113ef6117e6565b6113f7611a01565b6001600160a01b03166000908152600960205260409020805460ff19166001179055005b346101a857610c9a61142c36611812565b906040519261143a84611872565b60008452611b68565b346101a85760203660031901126101a85761145c6117e6565b611464611a01565b6001600160a01b03166000908152600960205260409020805460ff19169055005b346101a85760203660031901126101a8576004356000818152600260205260409020546114bc906001600160a01b03161515611fd8565b60005260086020526020600460406000200154604051908152f35b346101a857610c9a6114e836611812565b916114fb6114f68433611c03565b611b06565b611ccb565b346101a85760403660031901126101a8576115196117e6565b602435906001600160a01b03808061153085611aa5565b1692169180831461162b57803314908115611606575b501561159b57600083815260046020526040902080546001600160a01b0319168317905561157383611aa5565b167f8c5be1e5ebec7d5bd14f71427d1e84f3dd0314c0f7b2291e5b200ac8c7c3b925600080a4005b60405162461bcd60e51b815260206004820152603d60248201527f4552433732313a20617070726f76652063616c6c6572206973206e6f7420746f60448201527f6b656e206f776e6572206f7220617070726f76656420666f7220616c6c0000006064820152608490fd5b9050600052600560205260406000203360005260205260ff6040600020541684611546565b60405162461bcd60e51b815260206004820152602160248201527f4552433732313a20617070726f76616c20746f2063757272656e74206f776e656044820152603960f91b6064820152608490fd5b346101a85760203660031901126101a85760206112e1600435611ac8565b346101a85760003660031901126101a857604051600080546116b981611903565b80845290600190818116908115610eda57506001146116e257610b5b84610e6d8186038261188e565b600080805292507f290decd9548b62a8d60345a988386fc84ba6bc95484008f6362f93160ef3e5635b828410611723575050508101602001610e6d82610e5d565b8054602085870181019190915290930192810161170b565b346101a85760203660031901126101a8576004359063ffffffff60e01b82168092036101a8576020916380ac58cd60e01b8114908115611795575b8115611784575b5015158152f35b6301ffc9a760e01b1490508361177d565b635b5e139f60e01b81149150611776565b919082519283825260005b8481106117d2575050826000602080949584010152601f8019910116010190565b6020818301810151848301820152016117b1565b600435906001600160a01b03821682036101a857565b602435906001600160a01b03821682036101a857565b60609060031901126101a8576001600160a01b039060043582811681036101a8579160243590811681036101a8579060443590565b6024359081151582036101a857565b60e0810190811067ffffffffffffffff8211176106df57604052565b6020810190811067ffffffffffffffff8211176106df57604052565b90601f8019910116810190811067ffffffffffffffff8211176106df57604052565b67ffffffffffffffff81116106df57601f01601f191660200190565b9291926118d8826118b0565b916118e6604051938461188e565b8294818452818301116101a8578281602093846000960137010152565b90600182811c92168015611933575b602083101461191d57565b634e487b7160e01b600052602260045260246000fd5b91607f1691611912565b906040519182600082549261195184611903565b9081845260019485811690816000146119c0575060011461197d575b505061197b9250038361188e565b565b9093915060005260209081600020936000915b8183106119a857505061197b9350820101388061196d565b85548884018501529485019487945091830191611990565b91505061197b94506020925060ff191682840152151560051b820101388061196d565b9080601f830112156101a8578160206119fe933591016118cc565b90565b6006546001600160a01b03163303611a1557565b606460405162461bcd60e51b815260206004820152602060248201527f4f776e61626c653a2063616c6c6572206973206e6f7420746865206f776e65726044820152fd5b15611a6057565b60405162461bcd60e51b815260206004820152601860248201527f4552433732313a20696e76616c696420746f6b656e20494400000000000000006044820152606490fd5b6000908152600260205260409020546001600160a01b03166119fe811515611a59565b600081815260026020526040902054611aeb906001600160a01b03161515611a59565b6000908152600460205260409020546001600160a01b031690565b15611b0d57565b60405162461bcd60e51b815260206004820152602d60248201527f4552433732313a2063616c6c6572206973206e6f7420746f6b656e206f776e6560448201526c1c881bdc88185c1c1c9bdd9959609a1b6064820152608490fd5b90611b8c939291611b7c6114f68433611c03565b611b87838383611ccb565b611de1565b15611b9357565b60405162461bcd60e51b815280611bac60048201611bb0565b0390fd5b60809060208152603260208201527f4552433732313a207472616e7366657220746f206e6f6e20455243373231526560408201527131b2b4bb32b91034b6b83632b6b2b73a32b960711b60608201520190565b906001600160a01b038080611c1784611aa5565b16931691838314938415611c4a575b508315611c34575b50505090565b611c4091929350611ac8565b1614388080611c2e565b909350600052600560205260406000208260005260205260ff604060002054169238611c26565b15611c7857565b60405162461bcd60e51b815260206004820152602560248201527f4552433732313a207472616e736665722066726f6d20696e636f72726563742060448201526437bbb732b960d91b6064820152608490fd5b90611cf391611cd984611aa5565b6001600160a01b0393918416928492909183168414611c71565b16918215611d905781611d1091611d0986611aa5565b1614611c71565b7fddf252ad1be2c89b69c2b068fc378daa952ba7f163c4a11628f55a4df523b3ef60008481526004602052604081206bffffffffffffffffffffffff60a01b9081815416905583825260036020526040822060001981540190558482526040822060018154019055858252600260205284604083209182541617905580a4565b60405162461bcd60e51b8152602060048201526024808201527f4552433732313a207472616e7366657220746f20746865207a65726f206164646044820152637265737360e01b6064820152608490fd5b92939190803b15611ef857611e33946040518092630a85bd0160e11b9485835233600484015260018060a01b03809816602484015260448301526080606483015281806020998a9560848301906117a6565b03916000988991165af1849181611eb4575b50611ea3575050503d600014611e9b573d611e5f816118b0565b90611e6d604051928361188e565b81528091833d92013e5b80519182611e985760405162461bcd60e51b815280611bac60048201611bb0565b01fd5b506060611e77565b6001600160e01b0319161492509050565b9091508581813d8311611ef1575b611ecc818361188e565b81010312611eed57516001600160e01b031981168103611eed579038611e45565b8480fd5b503d611ec2565b5050915050600190565b15611f0957565b60405162461bcd60e51b815260206004820152601c60248201527f4552433732313a20746f6b656e20616c7265616479206d696e746564000000006044820152606490fd5b91906001830160009082825280602052604082205415600014611fd25784549468010000000000000000861015611fbe5760018601808255861015611faa57836040949596828552602085200155549382526020522055600190565b634e487b7160e01b83526032600452602483fd5b634e487b7160e01b83526041600452602483fd5b50925050565b15611fdf57565b60405162461bcd60e51b815260206004820152601660248201527514dd185c9d1d5c08191bd95cc81b9bdd08195e1a5cdd60521b6044820152606490fdfea264697066735822122048ce1414ed95b7b5dbbacd747172844535e6ca7fabf51380d9dff256643f53e664736f6c63430008140033",
  "linkReferences": {},
  "deployedLinkReferences": {}
}